:020000040800F2
:100000000020002025030008690300086903000898
:1000100000000000000000000000000000000000E0
:10002000000000000000000000000000690300085C
:10003000000000000000000069030008D902000869
:1000400069030008690300086903000869030008E0
:1000500069030008690300086903000869030008D0
:1000600069030008690300086903000869030008C0
:1000700069030008690300086903000869030008B0
:100080006903000869030008000000006903000814
:100090006903000869030008690300086903000890
:1000A0006903000869030008690300086903000880
:1000B0006903000800000000690300080000000058
:1000C0005FF808F180B582B000AF78600A1CFB1CB5
:1000D0001A70FB1C1B78002B07D0094B084A526989
:1000E000111C7A680A435A6106E0054B044A5269BA
:1000F0007968C9430A405A61BD4602B080BDC04616
:1001000000100240B0B582B000AF021C3960FB1D88
:100110001A70FB1D1B787F2B32D93049FB1D1B78D1
:100120001A1C0F231340083B98082C4AFB1D1B7810
:100130001C1C0F232340083B9B0806339B00D3184D
:100140005B68FA1D1278141C03222240D200FF249F
:10015000251C95402A1CD2431A403B689C01FF2372
:100160001C40FB1D1B781D1C03232B40DB00251CA2
:100170009D402B1C1A43831D9B00CB185A6029E01D
:10018000174BFA1D127852B292081549F81D0078E3
:1001900040B28008C03080004158F81D0078041C2F
:1001A00003202040C000FF24251C8540281CC0439C
:1001B000084039688C01FF210C40F91D09780D1C9D
:1001C00003212940C900251C8D40291C0143C03250
:1001D0009200D150BD4602B0B0BDC04600ED00E077
:1001E00000E100E080B582B000AF78607A680E4B25
:1001F0009A4201D9012312E00C4B7A681202120ACA
:10020000013A5A6001235B42181C0321FFF77AFF71
:10021000064B00229A60054B07221A600023181C27
:10022000BD4602B080BDC046FFFFFF0010E000E009
:1002300080B582B000AF78607B68002B01DC0123C1
:100240007B607A680B4B9A4201DD0A4B7B600A485F
:10025000796800F045FA031C1A1C084B1A6008481C
:10026000796800F03DFA031C181CFFF7BBFFBD4680
:1002700002B080BDA086010040420F0010000020A7
:10028000006CDC0280B584B000AF7860104B1A6857
:10029000FA239B009A4217DC0E4B1B68FB607B68BD
:1002A000FA2292005A430A4B1B68101C191C00F0DA
:1002B00017FA031C7B60C046064B1A68FB68D21A0B
:1002C0007B689A42F8DB00E0C046BD4604B080BDC2
:1002D000100000201400002080B500AF034B1B6805
:1002E0005A1C024B1A60BD4680BDC0461400002057
:1002F00080B500AFFA239B00181CFFF799FF002080
:1003000000F090F9012000F08DF9012000F0C6F90D
:10031000002000F0C3F9FA235B00181CFFF7B2FFBE
:10032000F3E7C046002103E00A4B5B584350043119
:1003300009480A4B42189A42F6D3094A02E00023C0
:1003400013600432074B9A42F9D300F0ADF8FFF77F
:10035000CFFF7047C40700080000002010000020F5
:100360001000002018000020FEE7000080B586B0D5
:1003700000AF7860396000237B6100233B6100237C
:10038000FB6000237B6188E07B690122101C9840A0
:10039000031C3B613B681B683A691340FB60FA68C9
:1003A0003B699A4276D13B681B79012B03D03B68AD
:1003B0001B79022B39D17B689B687A695200032133
:1003C000081C9040021CD2431A407B689A607B68EC
:1003D0009B681A1C3B685B79191C7B695B00081CD5
:1003E0009840031C1A437B689A607B689B889BB289
:1003F0007A6992B20121081C9040021C92B2D24349
:1004000092B213409AB27B689A807B689B889AB2BA
:100410003B689B79191C7B699BB2081C9840031CA4
:100420009BB213439AB27B689A807B681B687A6997
:1004300052000321081C9040021CD2431A407B68E2
:100440001A607B681B681A1C3B681B79191C7B6946
:100450005B00081C9840031C1A437B681A607B6889
:10046000DB687A6992B252000321081C9040021C9A
:10047000D2431A407B68DA607B68DB681A1C3B68F1
:10048000DB79191C7B695B00081C9840031C1A432C
:100490007B68DA607B6901337B617B690F2B00D855
:1004A00072E7BD4606B080BD80B500AF1D4B1D4A4A
:1004B000126801210A431A601A4B1A4A5268111C29
:1004C000194A0A405A60174B164A1268111C174AFB
:1004D0000A401A60134B134A1268111C144A0A404E
:1004E0001A60104B0F4A5268111C124A0A405A6097
:1004F0000C4B0C4AD26A0F218A43DA62094B094A33
:10050000126B111C0C4A0A401A63064B054A526BC7
:1005100001218A435A63034B00229A6000F00EF8CF
:10052000BD4680BD001002400CB8FFF8FFFFF6FE8C
:10053000FFFFFBFFFFFFC0FFACFEFFFF80B582B0F7
:1005400000AF00237B6000233B60334B324A1268CC
:10055000802149020A431A602F4B1B681A1C802312
:100560009B0213403B607B6801337B603B68002B40
:1005700004D17A68A023DB009A42EDD1264B1B6898
:100580001A1C80239B02134002D001233B6001E030
:1005900000233B603B68012B3BD1204B11221A60AA
:1005A0001D4B1D4A52685A601B4B1B4A52685A60C9
:1005B000194B194A5268111C194A0A405A60164BC5
:1005C000154A5268882149030A435A60124B124A5D
:1005D0001268802149040A431A60C0460E4B1B680A
:1005E0001A1C80239B041340F8D00B4B0A4A526814
:1005F00003218A435A60084B074A526802210A4382
:100600005A60C046044B5B681A1C0C231340082B2D
:10061000F8D1BD4602B080BD00100240002002406B
:10062000FFFFC0FF80B584B000AF021CFB1D1A7035
:10063000FB1D1A78164B9200D358181C0121FFF7A6
:1006400041FDFB1D1A78134B5200D35A1A1C3B1C58
:1006500008331A603B1C083301221A713B1C083313
:1006600000229A713B1C08330022DA713B1C0833CC
:1006700003225A71FB1D1A78074B9200D2583B1C7B
:100680000833101C191CFFF771FEBD4604B080BD75
:10069000A4070008080000200000002080B582B0F8
:1006A00000AF021CFB1D1A70FB1D1A780A4B92004A
:1006B000D358FA1D1178084A89008A58928A91B253
:1006C000FA1D1078054A4000825A4A4092B29A8236
:1006D000BD4602B080BDC0460000002008000020DA
:1006E000002941D010B4041C4C40A4460123002230
:1006F000002900D54942002800D5404288422CD329
:1007000001242407A14204D2814202D209011B0123
:10071000F8E7E400A14204D2814202D249005B0022
:10072000F8E7884201D3401A1A434C08A04202D38A
:10073000001B5C0822438C08A04202D3001B9C08CB
:100740002243CC08A04202D3001BDC08224300282D
:1007500003D01B0901D00909E3E7101C6446002CF3
:1007600000D5404210BC7047002806D003DB0020B3
:10077000C043400801E08020000607B4024802A1FF
:100780004018029003BDC046190000000029EBD0BC
:1007900003B5FFF7A7FF0EBC4243891A1847C046AE
:1007A0007047C0460000080000000800010000007B
:1007B0000000020001000000000000000000000036
:0407C0000500000030
:1007C400000800480008004800020001000000483A
:0400000508000000EF
:00000001FF
